{
  "contractName": "DEX",
  "abi": [
    {
      "inputs": [
        {
          "internalType": "address",
          "name": "tokenAddress",
          "type": "address"
        }
      ],
      "stateMutability": "nonpayable",
      "type": "constructor"
    },
    {
      "inputs": [],
      "name": "token",
      "outputs": [
        {
          "internalType": "contract IERC20",
          "name": "",
          "type": "address"
        }
      ],
      "stateMutability": "view",
      "type": "function"
    },
    {
      "inputs": [],
      "name": "buyTokens",
      "outputs": [],
      "stateMutability": "payable",
      "type": "function"
    },
    {
      "inputs": [
        {
          "internalType": "uint256",
          "name": "amount",
          "type": "uint256"
        }
      ],
      "name": "sellTokens",
      "outputs": [],
      "stateMutability": "nonpayable",
      "type": "function"
    }
  ],
  "bytecode": "0x608060405234801561000f575f80fd5b506040516109f73803806109f7833981810160405281019061003191906100d4565b805f806101000a81548173ffffffffffffffffffffffffffffffffffffffff021916908373ffffffffffffffffffffffffffffffffffffffff160217905550506100ff565b5f80fd5b5f73ffffffffffffffffffffffffffffffffffffffff82169050919050565b5f6100a38261007a565b9050919050565b6100b381610099565b81146100bd575f80fd5b50565b5f815190506100ce816100aa565b92915050565b5f602082840312156100e9576100e8610076565b5b5f6100f6848285016100c0565b91505092915050565b6108eb8061010c5f395ff3fe608060405260043610610033575f3560e01c80636c11bcd314610037578063d0febe4c1461005f578063fc0c546a14610069575b5f80fd5b348015610042575f80fd5b5061005d600480360381019061005891906104b7565b610093565b005b61006761029a565b005b348015610074575f80fd5b5061007d61045d565b60405161008a919061055c565b60405180910390f35b5f81116100d5576040517f08c379a00000000000000000000000000000000000000000000000000000000081526004016100cc906105f5565b60405180910390fd5b5f805f9054906101000a900473ffffffffffffffffffffffffffffffffffffffff1673ffffffffffffffffffffffffffffffffffffffff1663dd62ed3e33306040518363ffffffff1660e01b8152600401610131929190610633565b602060405180830381865afa15801561014c573d5f803e3d5ffd5b505050506040513d601f19601f82011682018060405250810190610170919061066e565b9050818110156101b5576040517f08c379a00000000000000000000000000000000000000000000000000000000081526004016101ac906106e3565b60405180910390fd5b5f8054906101000a900473ffffffffffffffffffffffffffffffffffffffff1673ffffffffffffffffffffffffffffffffffffffff166323b872dd3330856040518463ffffffff1660e01b815260040161021193929190610710565b6020604051808303815f875af115801561022d573d5f803e3d5ffd5b505050506040513d601f19601f82011682018060405250810190610251919061077a565b503373ffffffffffffffffffffffffffffffffffffffff166108fc8390811502906040515f60405180830381858888f19350505050158015610295573d5f803e3d5ffd5b505050565b5f3490505f805f9054906101000a900473ffffffffffffffffffffffffffffffffffffffff1673ffffffffffffffffffffffffffffffffffffffff166370a08231306040518263ffffffff1660e01b81526004016102f891906107a5565b602060405180830381865afa158015610313573d5f803e3d5ffd5b505050506040513d601f19601f82011682018060405250810190610337919061066e565b90505f821161037b576040517f08c379a000000000000000000000000000000000000000000000000000000000815260040161037290610808565b60405180910390fd5b808211156103be576040517f08c379a00000000000000000000000000000000000000000000000000000000081526004016103b590610870565b60405180910390fd5b5f8054906101000a900473ffffffffffffffffffffffffffffffffffffffff1673ffffffffffffffffffffffffffffffffffffffff1663a9059cbb33846040518363ffffffff1660e01b815260040161041892919061088e565b6020604051808303815f875af1158015610434573d5f803e3d5ffd5b505050506040513d601f19601f82011682018060405250810190610458919061077a565b505050565b5f8054906101000a900473ffffffffffffffffffffffffffffffffffffffff1681565b5f80fd5b5f819050919050565b61049681610484565b81146104a0575f80fd5b50565b5f813590506104b18161048d565b92915050565b5f602082840312156104cc576104cb610480565b5b5f6104d9848285016104a3565b91505092915050565b5f73ffffffffffffffffffffffffffffffffffffffff82169050919050565b5f819050919050565b5f61052461051f61051a846104e2565b610501565b6104e2565b9050919050565b5f6105358261050a565b9050919050565b5f6105468261052b565b9050919050565b6105568161053c565b82525050565b5f60208201905061056f5f83018461054d565b92915050565b5f82825260208201905092915050565b7f596f75206e65656420746f2073656c6c206174206c6561737420736f6d6520745f8201527f6f6b656e73000000000000000000000000000000000000000000000000000000602082015250565b5f6105df602583610575565b91506105ea82610585565b604082019050919050565b5f6020820190508181035f83015261060c816105d3565b9050919050565b5f61061d826104e2565b9050919050565b61062d81610613565b82525050565b5f6040820190506106465f830185610624565b6106536020830184610624565b9392505050565b5f815190506106688161048d565b92915050565b5f6020828403121561068357610682610480565b5b5f6106908482850161065a565b91505092915050565b7f436865636b2074686520746f6b656e20616c6c6f77616e6365000000000000005f82015250565b5f6106cd601983610575565b91506106d882610699565b602082019050919050565b5f6020820190508181035f8301526106fa816106c1565b9050919050565b61070a81610484565b82525050565b5f6060820190506107235f830186610624565b6107306020830185610624565b61073d6040830184610701565b949350505050565b5f8115159050919050565b61075981610745565b8114610763575f80fd5b50565b5f8151905061077481610750565b92915050565b5f6020828403121561078f5761078e610480565b5b5f61079c84828501610766565b91505092915050565b5f6020820190506107b85f830184610624565b92915050565b7f596f75206e65656420746f2073656e6420736f6d6520657468657200000000005f82015250565b5f6107f2601b83610575565b91506107fd826107be565b602082019050919050565b5f6020820190508181035f83015261081f816107e6565b9050919050565b7f4e6f7420656e6f75676820746f6b656e7320696e2074686520726573657276655f82015250565b5f61085a602083610575565b915061086582610826565b602082019050919050565b5f6020820190508181035f8301526108878161084e565b9050919050565b5f6040820190506108a15f830185610624565b6108ae6020830184610701565b939250505056fea2646970667358221220630e058801cb13a7499a34b6f71172330ce994662248facec27f629fcff7069664736f6c63430008140033",
  "immutableReferences": {},
  "source": "// SPDX-License-Identifier: MIT\r\npragma solidity ^0.8.0; // Update to match the version in your Truffle configuration\r\n\r\nimport \"@openzeppelin/contracts/token/ERC20/IERC20.sol\";\r\n\r\ncontract DEX {\r\n    IERC20 public token;\r\n\r\n    constructor(address tokenAddress) {\r\n        token = IERC20(tokenAddress);\r\n    }\r\n\r\n    function buyTokens() public payable {\r\n        uint256 amountToBuy = msg.value;\r\n        uint256 dexBalance = token.balanceOf(address(this));\r\n        require(amountToBuy > 0, \"You need to send some ether\");\r\n        require(amountToBuy <= dexBalance, \"Not enough tokens in the reserve\");\r\n        token.transfer(msg.sender, amountToBuy);\r\n    }\r\n\r\n    function sellTokens(uint256 amount) public {\r\n        require(amount > 0, \"You need to sell at least some tokens\");\r\n        uint256 allowance = token.allowance(msg.sender, address(this));\r\n        require(allowance >= amount, \"Check the token allowance\");\r\n        token.transferFrom(msg.sender, address(this), amount);\r\n        payable(msg.sender).transfer(amount);\r\n    }\r\n}\r\n",
  "sourcePath": "C:\\Users\\shris\\CoolDEX\\contracts\\DEX.sol",
  "compiler": {
    "name": "solc",
    "version": "0.8.20+commit.a1b79de6.Emscripten.clang"
  },
  "schemaVersion": "3.4.16",
  "updatedAt": "2024-05-27T18:44:59.367Z",
  "devdoc": {
    "kind": "dev",
    "methods": {},
    "version": 1
  },
  "userdoc": {
    "kind": "user",
    "methods": {},
    "version": 1
  }
}